:020000040800F2
:100000000000032095050008391D00083B1D00086D
:100010003D1D00083F1D0008411D000800000000B4
:10002000000000000000000000000000A1570008D0
:10003000431D00080000000031580008A3500008CC
:10004000E5050008E5050008E5050008E5050008E8
:10005000E5050008E5050008E5050008E5050008D8
:10006000E5050008E5050008E5050008E5050008C8
:10007000E5050008E5050008E5050008E5050008B8
:10008000E5050008E5050008E5050008E5050008A8
:10009000E5050008E5050008E5050008E505000898
:1000A000E5050008E5050008E5050008E505000888
:1000B000E5050008E5050008E5050008E505000878
:1000C000E5050008E5050008E5050008E505000868
:1000D000E5050008E5050008E5050008E505000858
:1000E000E5050008E5050008E5050008E505000848
:1000F000E5050008E5050008E5050008E505000838
:10010000E5050008E5050008E5050008E505000827
:10011000E5050008E5050008451D0008E50500089F
:10012000E5050008E5050008E5050008E505000807
:10013000E5050008E5050008E5050008E5050008F7
:10014000E5050008E5050008E5050008E5050008E7
:10015000E5050008E5050008E5050008E5050008D7
:10016000E5050008E5050008E5050008E5050008C7
:10017000E5050008E5050008E505000800000000A9
:10018000E5050008E5050008E5050008E5050008A7
:10019000E5050008E5050008E5050008E505000897
:0C01A000511D0008E50500085D1D000869
:1001B00010B5054C237833B9044B13B10448AFF3A1
:1001C00000800123237010BD6401002000000000A6
:1001D000B48D010808B5034B1BB103490348AFF3C5
:1001E000008008BD0000000068010020B48D0108F7
:1001F00001F0FF01102A2BDB10F0070F08D010F8D8
:10020000013B013A8B422DD010F0070F42B3F6D1DB
:10021000F0B441EA012141EA014122F007047FF0F4
:1002200000070023F0E80256083C85EA010586EA4B
:10023000010685FA47F5A3FA87F586FA47F6A5FA87
:1002400087F68EB9EED1F0BC01F0FF0102F0070293
:1002500032B110F8013B013A83EA010313B1F8D13E
:100260000020704701387047002D06BF354603381F
:10027000073815F0010F07D1013015F4807F02BF58
:10028000013015F4C03F0130F0BC0138704700BFA9
:1002900053B94AB9002908BF00281CBF4FF0FF31ED
:1002A0004FF0FF3000F074B9ADF1080C6DE904CEE9
:1002B00000F006F8DDF804E0DDE9022304B0704741
:1002C0002DE9F047089D04468E46002B4DD18A4209
:1002D000944669D9B2FA82F252B101FA02F3C2F13C
:1002E000200120FA01F10CFA02FC41EA030E9440CD
:1002F0004FEA1C48210CBEFBF8F61FFA8CF708FBEE
:1003000016E341EA034306FB07F199420AD91CEBC5
:10031000030306F1FF3080F01F81994240F21C81F7
:10032000023E63445B1AA4B2B3FBF8F008FB10333F
:1003300044EA034400FB07F7A7420AD91CEB040474
:1003400000F1FF3380F00A81A74240F20781644444
:10035000023840EA0640E41B00261DB1D4400023C9
:10036000C5E900433146BDE8F0878B4209D9002D2D
:1003700000F0EF800026C5E9000130463146BDE8B7
:10038000F087B3FA83F6002E4AD18B4202D3824221
:1003900000F2F980841A61EB030301209E46002DD0
:1003A000E0D0C5E9004EDDE702B9FFDEB2FA82F225
:1003B000002A40F09280A1EB0C014FEA1C471FFA83
:1003C0008CFE0126200CB1FBF7F307FB131140EA6A
:1003D00001410EFB03F0884208D91CEB010103F137
:1003E000FF3802D2884200F2CB804346091AA4B2F9
:1003F000B1FBF7F007FB101144EA01440EFB00FECD
:10040000A64508D91CEB040400F1FF3102D2A64531
:1004100000F2BB800846A4EB0E0440EA03409CE7D0
:10042000C6F12007B34022FA07FC4CEA030C20FA7D
:1004300007F401FA06F31C43F9404FEA1C4900FA9D
:1004400006F3B1FBF9F8200C1FFA8CFE09FB18111A
:1004500040EA014108FB0EF0884202FA06F20BD98D
:100460001CEB010108F1FF3A80F08880884240F2DD
:100470008580A8F102086144091AA4B2B1FBF9F021
:1004800009FB101144EA014100FB0EFE8E4508D91C
:100490001CEB010100F1FF346CD28E456AD90238A1
:1004A000614440EA0840A0FB0294A1EB0E01A14286
:1004B000C846A64656D353D05DB1B3EB080261EBF4
:1004C0000E0101FA07F722FA06F3F1401F43C5E9CE
:1004D000007100263146BDE8F087C2F12003D84004
:1004E0000CFA02FC21FA03F3914001434FEA1C4746
:1004F0001FFA8CFEB3FBF7F007FB10360B0C43EA38
:10050000064300FB0EF69E4204FA02F408D91CEBE7
:10051000030300F1FF382FD29E422DD902386344E5
:100520009B1B89B2B3FBF7F607FB163341EA034185
:1005300006FB0EF38B4208D91CEB010106F1FF38D4
:1005400016D28B4214D9023E6144C91A46EA0046CB
:1005500038E72E46284605E70646E3E61846F8E65D
:100560004B45A9D2B9EB020864EB0C0E0138A3E7A6
:100570004646EAE7204694E74046D1E7D0467BE787
:10058000023B614432E7304609E76444023842E7FF
:10059000704700BFDFF834D0002103E00C4B5B58FC
:1005A000435004310B480C4B42189A42F6D30B4A85
:1005B00002E0002342F8043B094B9A42F9D302F0CF
:1005C00049FB17F091FB00F09DFE704700000320EF
:1005D00090A30208000000206401002064010020B4
:1005E0006C250120FEE700F085BC00F0F3BC7047ED
:1005F00010B50421044617F0FEFA204610BD000095
:1006000038B50C4B0C4C18800C4B82201980636859
:10061000984740F6110398420AD1094D23682C608F
:10062000822098472B688220DB689847002038BDDD
:100630000120FCE7800100204C0000208201002006
:10064000840100204FF4A071F020FFF7D9BF000013
:10065000F7B5344D2B6804461B698220984780B259
:10066000208000284CD02B680DF106025B6901A99F
:1006700082209847BDF8063040F67462934241D913
:10068000ADF80620BDF80620C2F56762043292B2CA
:100690000A2A3DD90B23B2FBF3F2234B1B889A4263
:1006A00001D9013B9AB2BDF8043040F6B8318B4213
:1006B00030D8C3F571630E339BB20F21B3FBF1F356
:1006C0001A4909888B4201D94B1E9BB2184E194D0D
:1006D00030682F68834281B28CBF591AC91AB8B2E8
:1006E000BA428CBF101A801A89B280B2014405291F
:1006F000C8BF33603368C8BF2A6063802B68A3809B
:1007000003B0F0BDB32B9CBFB423ADF80630B9E7FE
:100710000022C8E7C3F56D6308339BB20E2BCCD81B
:100720000023D3E784010020820100208001002003
:10073000880100208C01002037B568460D4614461C
:10074000FFF786FFBDF8000030B1BDF802302B6026
:10075000BDF804302360012003B030BD032821D848
:10076000DFE800F0020B12190F4B1A68B2FA82F29E
:10077000520904210D4802F005BD0B4B5A68B2FA2C
:1007800082F252090821F5E7074B9A68B2FA82F221
:1007900052091021EEE7044BDA68B2FA82F25209EC
:1007A0002021E7E7704700BF9001002000100240C1
:1007B000032821D8DFE800F0020B12190F4B1A684A
:1007C000003A18BF012204210D4802F0DBBC0B4B9C
:1007D0005A68003A18BF01220821F5E7074B9A68CA
:1007E000003A18BF01221021EEE7044BDA68003A04
:1007F00018BF01222021E7E7704700BF90010020C9
:100800000010024003280DD8DFE800F00206080AB5
:100810000421054802F0BBBC0821FAE71021F8E7E3
:100820002021F6E7704700BF00100240012380F846
:10083000741080F87530704700207047034B416496
:10084000003918BF01211970704700BFC72201206D
:1008500000207047836B0BB10846184770474FF66E
:10086000FF707047406803689B691847704770477E
:100870007047000070B5044600F04CFC2368D3F8C4
:100880008850044BD4E90F122046AC46BDE87040B6
:10089000604700BF000000D008B503680446D3F8E5
:1008A00080309847236820469B6F984700F0ECF80B
:1008B000236820461B6F9847292000F06FFF00F047
:1008C000E3F8236820461B6F9847F8E710B5044605
:1008D00007F07AFD23682046D3F8AC30BDE810401D
:1008E000184700F009BC00F00DBC00F039BC00F066
:1008F000DFBB00F039BC00F041BC00F0E3BB06F008
:10090000CBBF10B57C21044617F075F9204610BD09
:1009100090F877301BB1406803681B681847184689
:100920007047000010B590F8341090F874400C4BEC
:100930008C421A7809D03AB90A4A0B4914880888B7
:1009400010800C8001221A7010BD002AFCD0054ACC
:1009500005491488088810800C800022F3E700BF46
:10096000C0220120BC220120BE22012070B50D460C
:10097000194635B9094B0A4A0A4840F2D22117F004
:1009800069F9C0E90F52084B003A18BF01221A70EA
:100990000368BDE87040D3F88C301847248E0108F6
:1009A0005C8E0108AA8E0108C622012008B5094BF9
:1009B0001B888B4203D8084B1B88934205D9074BF1
:1009C000074A08489E2117F045F9074B1980074B45
:1009D0001A8008BDBC220120BE220120EF8E010832
:1009E000528F0108AA8E0108C2220120C4220120D0
:1009F000012108B50022084604F0E1FB0A4B18600B
:100A000028B90A4B0A4A28210A4817F023F900227C
:100A10000421012004F079FC074B186018B9074B3A
:100A2000034A2C21F0E708BDA401002070900108C2
:100A3000B9900108E8900108A00100203A9101084E
:100A4000024B4FF0FF31186804F003BCA4010020F2
:100A5000014B186804F028BCA4010020024B0021BF
:100A6000186804F0F6BB00BFA4010020FFF7F0BF38
:100A700003480449006800231A4604F081BC00BF03
:100A8000A00100200400002013B5084C00231A46E2
:100A900001A9206804F0A4FC20684FF0FF33002275
:100AA00001A904F09DFC02B010BD00BFA001002010
:100AB00003685B6C18470120704703689B6A1847FE
:100AC00082B0002301930D4B1A6B42F400021A63AB
:100AD0001A6B02F400020192019A1A6942F40002B0
:100AE0001A611A6922F400021A61054B054A1A615B
:100AF000054B4FF080629A6002B0704700380240A8
:100B0000A81200204D0B000800E100E040F2EF3099
:100B100070470000054B0360054B4FF08062C3F83F
:100B20008820BFF34F8FBFF36F8F7047DC920108AF
:100B300000E100E010B504464FF45A61FFF7EAFF08
:100B4000204617F058F8204610BD0000024B1B68E5
:100B5000586803685B691847C822012070B50446CD
:100B600025460A4B0C30002660602672667245F8F6
:100B7000203B6022294607F065FD04F55A63EE60CC
:100B80002435AB42FBD1204670BD00BFDC9201088A
:100B900008B50B290BD8DFE801F01206100A0A0A83
:100BA0000A0808080808012008BD0520FCE7054BD5
:100BB000054A0648662117F04DF80020F4E70220A8
:100BC000F2E700BF7C91010897910108E1910108CB
:100BD00008B50A2909D8DFE801F010060E08080850
:100BE000080606060600012008BD054B054A064812
:100BF000872117F02FF80020F6E70220F4E700BF66
:100C00007C91010831920108E19101082DE9F84336
:100C10004F7F0C4639468146FFF7BAFF94F81E8095
:100C2000054641464846FFF7B3FF4146064648465B
:100C3000FFF7CEFFA18A628B424B521A1A649A6167
:100C4000228B521A1A61E28A586342EA01425A64BC
:100C500020696268D863DA60216894F81CC0802932
:100C60004FEA0C6226D010D8202945EA020461D050
:100C700040295FD004295DD0324B2A4342F4003230
:100C80004745DA615AD0304A40E0B1F5807F07D05D
:100C9000B1F5007FF0D142F4003242F0090203E0E6
:100CA00042F4003242F00A02DA61E2681A625E62DD
:100CB00058612AE0A4682A4342F40032211DD96217
:100CC000DA6122785E62586142B1012A21D01F4B5D
:100CD0001F4A204840F2111116F0BCFFDA69618802
:100CE00022F47F42013922F0100242EA0122DA6145
:100CF0000120144BDA6942F02002DA61DA699206C7
:100D0000FCD410229A600028BDD0134A1A60BDE8B6
:100D1000F8836288D969541E21F47F4222F01002C0
:100D200042EA0422BCF1FF0042F0100218BF012089
:100D3000DA61DEE744F40034DC61B8E740F2012216
:100D4000E4E700BF00B00240010201007C9201080C
:100D500096920108E19101080102020070B50C466B
:100D6000897FFFF735FFA68AE18A628B154B2569DB
:100D7000586341EA0641921B5964DD631A64266890
:100D8000E168082E0DD19A611A615862207F0E4ADF
:100D900042EA0062DA610D4A19625D61DD601A6043
:100DA00070BD0022D8611A6148090A0A02F478422B
:100DB00000F4FC600243C1F3C4010A439A63044A8D
:100DC000EDE700BF00B0024009000100010202008F
:100DD00001020300012070470C2070470C2303FB25
:100DE0000100083070470C2303FB010008307047F6
:100DF000012070479C2070479C2303FB01000830B2
:100E000070479C2303FB01000830704701207047A6
:100E10001020704700EB01100830704700EB011004
:100E200008307047084601F077B9000010B5034B51
:100E30000360044606F07BFA204610BD9493010837
:100E400010B50446FFF7F2FF2046142116F0D3FE3A
:100E5000204610BD10B5034B0360044606F067FA48
:100E6000204610BD6093010810B50446FFF7F2FF5D
:100E70002046A42116F0BFFE204610BD10B5034B3E
:100E80000360044606F053FA204610BD2C93010877
:100E900010B50446FFF7F2FF2046182116F0ABFE0E
:100EA000204610BD10B5084B044640F8D03BFFF774
:100EB000BDFF04F12C00FFF7CDFF04F11400FFF794
:100EC000DDFF204610BD00BFC893010808B50248E9
:100ED000FFF7E8FF08BD00BFAC01002010B50446D5
:100EE000FFF7E0FF20464FF4107116F084FE204615
:100EF00010BD00002DE9F34100F0A4FF054600F00D
:100F0000A5FF0024014623462846224600940BF004
:100F100085F8254B254A264D1A60204601F028FB0E
:100F200024480AF0E3FF2B78BFF35B8FDB0735D44F
:100F3000284616F062FE88B31F4C204B236004F154
:100F4000E80604F1140004F12C0804F1D0076060F5
:100F5000C4F80880E760266106F0EAF9184B63617F
:100F6000404606F0E5F9174BE362384606F0E0F933
:100F7000154BC4F8D03004F1E40001F067FB2246C1
:100F800004F1E401304601F057FB304601F0C4F8AB
:100F90000E4816F07DFE284616F03BFE0C4802B0C7
:100FA000BDE8F041FFF766BC242301200C120020AD
:100FB000A801002008000020AC010020C89301080F
:100FC0002C9301086093010894930108CD0E00084A
:100FD000901100200148FFF75FBC00BF9011002076
:100FE00070B5234C234E244B244D23603046FFF72D
:100FF000B5FD28460EF01CF9214B2248DC60224C3E
:1010000003600022F0204FF480712080C3E91212A7
:101010001E4C1F492080C3E919121E4C1A864FF03E
:1010200080714FF4A07059670121C3E90422C3E91C
:101030000622C3E90822C3E90A22C3E90E22C3E952
:101040001022C3E91422C3E916221A6683F86C2021
:101050001A67C3E9016583F8781020800E4C83F885
:10106000341020800D4802700D4A1A6070BD00BF18
:10107000EC030020F0030020148E01081012002061
:1010800090110020C8220120BC220120C222012090
:1010900001000001BE220120C4220120C022012043
:1010A000A08F01080148FFF735BD00BFF003002005
:1010B000034B902283F85A2383F85823704700BFCC
:1010C00000E100E0094A0A49D3680A48C3F30A0369
:1010D000013B9BB20B801169C1F30A010139018008
:1010E0001364536B43F0010353637047006801407E
:1010F0008C1200208A120020014BD3F8AC007047FC
:1011000000680140024B0122C3F8AC105A627047DC
:101110000068014070B5044606F013FC23685D6E5C
:1011200008F0FCFB01462046A8472368054AD3F88F
:1011300088502046AC460023BDE87040A2F5163129
:10114000604700BF00B004D006F0E2BB90F84B301F
:1011500013B1024B01221A7006F0E6BB8812002080
:1011600006F0A0BB06F0F9BC034B4FF080629A601A
:101170004FF080729A60704700E100E0084B4FF03A
:101180008062C3F88820BFF34F8FBFF36F8F4FF09B
:101190008072C3F88820BFF34F8FBFF36F8F704703
:1011A00000E100E010B5144C236823B3134B144A3C
:1011B0001B6C11888B4213D1124B198802F0C8FDA9
:1011C000226892F86630013382F86630FFF750FCEF
:1011D000206807F0F9F8BDE810400020FFF7BEBA1C
:1011E00002F0B6FD206803681B6A9847BDE810400E
:1011F0000020FFF7DDBA10BDC822012000680140C1
:101200008C1200208A12002007B5064BADF80600AC
:101210001B68054801220DF1060103F0E5FA03B051
:101220005DF804FB100000201814002037B50D4DA8
:101230000D4C0121284601F09FFF01280ED12068A6
:1012400004F0FDF8012809D852238DF807302068F2
:10125000C82300220DF1070104F092F80A2003F0E0
:10126000A2FFE6E7000002409812002030B595B0DA
:10127000102200210AA816F079FD1422002103A8EB
:1012800016F074FD00241D4B01941A6C42F080523C
:101290001A641B6C03F080530193019B184B02945A
:1012A0001A6842F440421A601B6803F440430293F8
:1012B0000122029B4FF48033CDE9082302254FF42D
:1012C0008003CDE90E5308214FF4A873CDE9101324
:1012D00008A804231393129502F058FD0F23CDE9BB
:1012E00003354FF4A0504FF48053CDE90603052198
:1012F00003A8059402F028FF15B030BD0038024065
:101300000070004080B59AB001F0B2FCFFF7AEFF6C
:10131000142200210DA8002416F028FDC34B0094D0
:101320001A6BC348C34D42F010021A631A6B02F0E5
:1013300010020092009A01941A6B42F020021A6384
:101340001A6B02F020020192019A02941A6B42F089
:1013500080021A631A6B02F080020292029A0394CE
:101360001A6B42F004021A631A6B02F00402039231
:10137000039A04941A6B42F001021A631A6B02F08A
:1013800001020492049A05941A6B42F002021A6355
:101390001A6B02F002020592059A06941A6B42F04B
:1013A00040021A631A6B02F040020692069A0794F2
:1013B0001A6B42F008021A631B6B03F008030793D1
:1013C00022463C21079B01F0DDFE9B48224604217A
:1013D00001F0D8FE224699484FF4405101F0D2FE68
:1013E00001264FF003083C239148CDF840800DA919
:1013F00002274FF0040ACDE90D360F9401F0D6FD17
:101400008D480F940DA9CDE90DA6109701F0CEFDE2
:101410004FF4405389480DA9CDE90D36CDE90F476A
:1014200001F0C4FD0DA98648CDE90D64CDE90F4753
:1014300001F0BCFD8348844B036001F0ABFC834AA0
:10144000834B2C62C5E9002328464FF48043C5E94D
:101450000434C5E90244C5E9064402F07DF81021D0
:10146000284602F0B9FA2146284602F0D4FA794813
:10147000794984624FF48273C0E900134FF4007518
:101480001823C0E906530A23744DC362C0E902441D
:10149000C0E90444C0E9084403F04AF9704B0D97D1
:1014A0004FF0100CC5E900364023C5E904C34FF4E2
:1014B000C073C5E906344FF40063C5E908344FF43E
:1014C0000053AB620DA907232846CDE90E3ACDE9BA
:1014D00010384FF00809C5E9024ACDE9127703F048
:1014E00027F84FF6FF7209A92846CDE90A96089415
:1014F00009960C9403F03CF8304601F0E5FB4FF6FA
:10150000FF7209A92846CDE90979CDE90B6403F0FA
:101510002FF84FF6FF7209A92846CDE90989CDE9D0
:101520000BA403F025F84FF40C730893089B0C935D
:101530004FF6FF7209A92846CDE909A90B9603F0D9
:1015400017F840F26A51284603F030F83422214659
:101550000DEB020016F00AFC424D434BAC86C5E988
:1015600000340923C5E905361D2340F20D1EC5E9E7
:10157000073840F24313C5E909E3284640F2471310
:1015800040F21718C5E90B83C5E902442C6185F8C0
:10159000364002F0E5FAFF21F022CDE912144FF4B3
:1015A000806A05214FF4A073CDE90E24CDE914A182
:1015B000CDE916420DA922462846CDE910372B4D1C
:1015C00018930D94ADF864408DF8664002F093FBDB
:1015D000274B2B601B6898472B68264DDB68984784
:1015E000254BC5E90A47C5E90C442846C5E900343E
:1015F000C5E9027401F0DEFB3146284601F092FC99
:10160000FEF7F1FF03F05AFD1C4A3146484603F04D
:101610007CFE1B4B1B4A186021461B4803F07AFDD9
:101620001A4B1B4A1860214634E000BF00380240C4
:1016300000100240E812002000080240000C0240A6
:1016400000000240A012002000300240005C004078
:10165000A08601001814002000500140E41300206F
:10166000400100A03C1300200068014094120020BB
:1016700014000020A812002000B0024014940108B9
:10168000981200202C9401082D1200089C120020B2
:10169000F0930108034803F03DFD034B186003F08D
:1016A0001FFDFEE7EB050008901200207047704711
:1016B0007FB5094B8DF817201B6802930DF11702B7
:1016C0000123009201930A460146044801F0ECFF11
:1016D00007B05DF804FB00BF0C000020E8120020FA
:1016E0007FB500238DF81730084B1B6802930A461C
:1016F00001230DF11701009101930146044802F006
:1017000063F89DF8170007B05DF804FB0C0000209B
:10171000E81200201FB5084C24680092CDE901347E
:101720000A4601230146054802F04EF8003818BF6A
:10173000012004B010BD00BF0C000020E812002002
:1017400001F0C2BA08B506480022042101F01AFDD2
:10175000BDE8084002480122042101F013BD00BF8A
:101760000008024038B50B4D044601220A484FF4E8
:10177000005101F007FD00220421284601F002FD7E
:101780002046FFF741FD28460122BDE838400421EC
:1017900001F0F8BC00080240000C024038B50B4DC7
:1017A000044600220A484FF4005101F0EBFC0022ED
:1017B0000421284601F0E6FC2046FFF725FD2846D7
:1017C0000122BDE83840042101F0DCBC00080240E1
:1017D000000C0240F7B5144E144F05460C46304637
:1017E0000022042101F0CEFC00224FF400513846C3
:1017F00001F0C8FC2846FFF707FD0D4B0D481B689C
:10180000224601A903F092F9384601224FF4005113
:10181000019C01F0B7FC30460122042101F0B2FC2A
:10182000204603B0F0BD00BF00080240000C02409B
:10183000100000201814002001F046BA0268034B83
:101840009A4201D101F02EBA704700BF001000404B
:101850007047000082B00E4B00220092596C41F498
:1018600080415964596C01F48041009100990192C2
:10187000196C41F0805119641B6C03F08053019383
:10188000019B0F216FF0010002B001F043BA00BFCD
:10189000003802400268094B9A4282B00BD1002303
:1018A0000193074B1A6B42F480521A631B6B03F4CB
:1018B00080530193019B02B0704700BF003002408B
:1018C0000038024007B50F4B02689A4216D1002239
:1018D000A3F5F0430192196B41F4000119631B6BEE
:1018E00003F40003019305215A20019B01F012FA31
:1018F0005A2003B05DF804EB01F03EBA03B05DF886
:1019000004FB00BF00B002402DE9F043044689B05B
:101910001422002103A816F029FA2268244B9A42C7
:1019200043D1244C244800250095236B43F0040345
:101930002363236B03F004030093009B0195236B47
:1019400043F001032363236B03F001030193019B25
:101950004FF012094FF400734FF0010803270426DB
:1019600003A9CDE90339CDE90587079601F01EFBF0
:101970004FF480731148079603A9CDE90339CDE9E7
:10198000058701F013FB0295236C43F400032364E5
:10199000236C03F400030293029B236A43F40003C5
:1019A0002362236A23F40003236209B0BDE8F083B5
:1019B000005C004000380240000802400000024085
:1019C000F0B599B004461422002107A816F0CEF90C
:1019D00030220DEB0200002116F0C8F922685E4BA0
:1019E0009A4240F0B78008230C93C023109304233D
:1019F00012930CA84FF40033159302F06FFC08B15A
:101A0000FFF726FF554B5648002400945A6C42F0CD
:101A100080625A645A6C02F080620092009A0194CB
:101A20001A6B42F020021A631A6B02F02002019234
:101A3000019A02941A6B42F001021A631A6B02F0C7
:101A400001020292029A03941A6B42F002021A6394
:101A50001A6B02F002020392039A04941A6B42F08A
:101A600040021A631A6B02F040020492049A059431
:101A70001A6B42F004021A631A6B02F00402059218
:101A8000059A06941A6B42F008021A631B6B03F066
:101A90000803069302250E26069B0B964FF48063DF
:101AA00007A9CDE90735CDE9094501F07FFA41F6EF
:101AB00058032C480B9607A9CDE907350927CDE92E
:101AC000094501F073FA032327480B9707A9CDE9CD
:101AD0000735CDE9094501F069FA4FF470632248F2
:101AE0000B9607A9CDE90735CDE9094501F05EFA66
:101AF0004FF40C631D480B9607A9CDE90735CDE9D6
:101B0000094501F053FAC02319480B9607A9CDE9FE
:101B10000735CDE9094501F049FA082315480B9628
:101B200007A9CDE90735CDE9094501F03FFA4FF4A2
:101B3000A0530E480B9707A9CDE90735CDE9094514
:101B400001F034FA58202246052101F0E3F858202C
:101B500001F012F919B0F0BD0068014000380240F0
:101B6000001402400000024000040240001802403D
:101B700000080240000C024010B5044688B0142250
:101B8000002103A816F0F2F82268144B9A4223D1E0
:101B900003F56843002101915A6C114842F4801208
:101BA0005A645A6C02F480120192019A02911A6BE3
:101BB00042F020021A631B6B03F020030293029B86
:101BC0004FF4607202230321CDE903230523CDE9FD
:101BD000061303A901F0EAF908B010BD0050014056
:101BE000001402402DE9F04186B0002303932B4BF3
:101BF0001C68002C4FD14FF00108C3F80080284B1F
:101C000000949A6B274842EA08029A639B6B03EAA6
:101C100008030093022703260C25009B01A94FF619
:101C20003F03CDE90137CDE9046501F0BFF91E4856
:101C3000059501A9CDE90187CDE9034601F0B6F983
:101C400048F233131948059501A9CDE90137CDE9CB
:101C5000034601F0ABF94FF683731548059501A9CA
:101C6000CDE90137CDE9034601F0A0F94CF2037349
:101C70001048059501A9CDE90137CDE9034601F0EA
:101C800095F960230C48059501A9CDE90137CDE907
:101C9000034601F08BF906B0BDE8F0817014002016
:101CA00000380240001402400008024000180240C0
:101CB00000100240000C02400004024030B5014612
:101CC00089B00022362001F025F8362001F054F8C2
:101CD0000025154B02951A6C144C42F010021A6440
:101CE0001B6C03F01003029301A903A8029B02F0EE
:101CF000D7FA02F0C5FA0E4B236040F2E733E360F7
:101D000040000C4BB0FBF3F00138606020462561C9
:101D1000A56003F0F7F820B9204602F0ADFF09B046
:101D200030BD0120FBE700BF0038024074140020E2
:101D30000010004040420F007047FEE7FEE7FEE75C
:101D4000FEE77047014802F0D5BF00BF74140020C1
:101D5000014801F073BF00BF3C130020014801F0AF
:101D600057B800BFA81200200120704708B515F031
:101D7000A3FF162303604FF0FF3008BD08B515F030
:101D80009BFF16230360FEE770B50D4614460E4612
:101D9000731B9C4201DC204670BDAFF3008006F847
:101DA000010BF5E770B50D4614460E46731B9C42B9
:101DB00001DC204670BD16F8010BAFF30080F5E79B
:101DC0004FF0FF3070474FF400534B6000207047D6
:101DD00001207047002070470A4A116808B5034681
:101DE00009B9094911601068694603448B4206D954
:101DF00015F062FF0C2303604FF0FF3008BD136045
:101E0000FCE700BFBC14002070250120704710B50E
:101E10000421044615F0EFFE204610BD012908B547
:101E200006D0022908D059B900F0E0FB006808BDCF
:101E300000F0DCFB4068FAE700F0D8FB8068F6E7CA
:101E40000020F4E7004870476494010801207047BF
:101E500013B5002451B1036801948DF8034001AA21
:101E60009C680DF10303A04702B010BD0846FBE7D4
:101E7000408970478089704780887047837980885F
:101E8000184480B27047C07900F07F007047C07975
:101E9000C00970477047704700F596730868496835
:101EA00003C3704770477047416070477047000038
:101EB000064BC0F848310023C0F84C3100F5A07340
:101EC000C0F84401C0F83C31704700BF711F0008E2
:101ED0000123037270477047704710B4C2684168AD
:101EE0005410034601EB6200D20748BF0A599B68B1
:101EF0005DF8044B48BFD358184743682BB183683B
:101F00002BB9C06800F001007047184670470120E7
:101F1000704710B50C21044615F06DFE204610BD2B
:101F200010B51021044615F066FE204610BD10B510
:101F30004FF4AC71044615F05EFE204610BD08B5A6
:101F400007F0ECFCBDE8084008F08CB810B504467A
:101F5000D0F83C0158B10368DB68984738B1D4F831
:101F60003C0103689B6898470023C4F83C3110BDCE
:101F70002DE9F14FD0E9545A0746A86803681B6A57
:101F800098479B2805D8454B454AA321454815F05D
:101F900061FE686803681B6A98470F2803D8424BA4
:101FA0003F4AA421F2E7E86803681B6A98470B28B8
:101FB00003D83E4B3A4AA521E8E7DFF8F89007F04E
:101FC000ADFC07F0B1FCD9F8000010B10368DB6884
:101FD0009847D9F8000010B103681B689847DFF8EC
:101FE000D880D8F8000010B103685B699847D7F82B
:101FF000380110B103685B689847D8F8000010B149
:1020000003681B689847D7F8380110B103689B68CC
:102010009847E868036800215B6A98474FF0000B17
:10202000234B03600446C0F804B080F808B0A868E9
:10203000036859465B6A9847064600F061FB68688A
:10204000036859465B6A98473146054600F010FB25
:10205000C9F80040C7F83851C8F80060E5B12B1D39
:10206000CAF800303368C5F808A03046DB68F5636D
:1020700098472B6828461B6898472146304609F048
:1020800031F8236820461B69984723685B6920461E
:1020900001B0BDE8F04F18472B46E1E778940108FE
:1020A000069501080A96010851960108F496010860
:1020B00004980108082301200423012070B5044678
:1020C0000D46164607F04AFC0F4A0023C4E9546542
:1020D0000E4D1460C4E952330D4A226028680D4A3F
:1020E000C4E94E33C4E95023036801219B68984733
:1020F0002B6893F876200AB1D86C00B998680EF076
:102100007EFE204670BD00BF14230120C82201209E
:10211000B8970108A0970108064BC0F84831002382
:10212000C0F84C3100F5A073C0F84401C0F83C3150
:10213000704700BF711F0008006A7047406A70470F
:1021400070478B8880690A68DB0A50F823001044C6
:10215000704710B5C2B1137BB3B1547BD27A24025D
:1021600004F4E0641443C26998B202EB8402138859
:102170008B4202D192F9020010BD05D8013880B21D
:1021800004320028F3D1F7E70020F5E710B5282145
:10219000044615F030FD204610BD000030B589B072
:1021A0000446BDF850500695BDF84C5005959DF875
:1021B000405004959DF83C5003959DF83850029589
:1021C0009DF8345001959DF83050009508F0EAFBD9
:1021D000064B2360119BA361129BE361159B236255
:1021E000169B6362204609B030BD00BF28980108E5
:1021F0000020704781807047C1807047018170471F
:10220000418170477047704770477047704710B4FE
:10221000C4880368121B84885B6D091B12B25DF8C9
:10222000044B09B218474FF6FF7383814FF0FF3319
:1022300003621368C361106070477047704770474E
:102240007047704790F825201AB190F8242002B109
:10225000186070477047704710B59821044615F014
:10226000CAFC204610BD70B5036804461B6B1546BA
:1022700098472368294620465B6BBDE870401847A5
:10228000F0B5044685B0264608F080FD00252C4BAD
:10229000E56346F8403B2B4B2566C4E910354FF407
:1022A0008072FF2304F16C07A4F8642084F8663080
:1022B000A4F890204FF6FF73234AA4F8923084F8D4
:1022C0009430E26603A93846C4E91255C4E91455AE
:1022D000C4E91655C4E91C55C4E91E55C4E9205586
:1022E000C4E92255A566ADF80C3006F0FAF92A4685
:1022F00029463046FFF7B7FF3046F021FFF77EFF53
:1023000030464FF4A071FFF77BFF4FF07F43A36689
:102310003F2238463821FFF7A6FF03A93846ADF81B
:102320000C5006F0DEF9201D3146019005F014F83E
:102330000198394605F010F8204605B0F0BD00BF01
:10234000809801085C9C0108C49C0108704700004B
:1023500030B5154D2C78BFF35B8F14F001048DB0B0
:102360001ED1284615F049FCD0B13F2307930F4BEF
:1023700006930F4B0F49104808940122CDE90443FE
:102380000423CDE90132CDE909440A2303940094E2
:10239000FFF704FF094815F07BFC284615F039FCCF
:1023A00005480DB030BD00BFC014002044A3010893
:1023B00050A3010814A30108C41400204D230008F1
:1023C0007047000030B5154D2C78BFF35B8F14F0CB
:1023D00001048DB01ED1284615F00FFCD0B13F236B
:1023E00007930F4B06930F4B0F4910480894012297
:1023F000CDE904430423CDE90132CDE90944142396
:1024000003940094FFF7CAFE094815F041FC2846E2
:1024100015F0FFFB05480DB030BD00BFEC140020E7
:1024200048A3010854A3010824A30108F0140020C4
:10243000C12300087047000030B5154D2C78BFF35C
:102440005B8F14F001048DB01ED1284615F0D5FB2A
:10245000D0B13F2307930F4B06930F4B0F49104802
:1024600008940122CDE904430423CDE90132CDE9EA
:102470000944282303940094FFF790FE094815F0BF
:1024800007FC284615F0C5FB05480DB030BD00BF60
:10249000181500204CA3010858A3010834A3010813
:1024A0001C150020352400080020704700207047CC
:1024B0000EB403B503AB002153F8042B019308F0CD
:1024C000A3F802B05DF804EB03B070470CB407B595
:1024D00004AB53F8042B019308F096F803B05DF8B1
:1024E00004EB02B070470000436C10B5044673B3B0
:1024F000038F2BB9184B194AC021194815F0AAFBB4
:10250000C38E00EB43035B8C0BB309F0B4FA238F4B
:10251000012B03D8134B144AC521EEE7E28E531C5E
:102520009BB2092B194688BFA3F10A0104EB4101B4
:1025300040F63F10498C814209D10A2B04EB42023C
:1025400028BF002304EB4303508C58845184204659
:10255000BDE8104009F092B9AC980108B59801089F
:1025600060990108AA990108B899010809F04DB9C4
:1025700038B518BB124B13481B681349B3B11A681E
:102580009C681A4402605A681A440A601C440F4B43
:1025900000221A8000F02AF8054600F025F80C4BBE
:1025A0001C600C4B1D600C4B188007E00B4B03604C
:1025B0000B4B0B600B4B1C68002CE8D138BD00BFE7
:1025C00044150020481500204C150020501500200F
:1025D00018230120202301201C23012060A30108CF
:1025E0005CA3010868A301080020704700487047F9
:1025F0005415002010B5FFF7E5FE044C2060FFF7EE
:102600001BFF6060FFF7A4FEA06010BD5415002002
:10261000704710B54FF4AC71044615F0ECFA204643
:1026200010BD10B50446D0F8540100F012F8204651
:10263000BDE8104007F020B810B50446FFF73EFD96
:10264000014B2360204610BD949A010800220260CD
:1026500070477047704704387047704710B51021B5
:10266000044615F0C8FA204610BDA0F10400F5E7B5
:1026700010B500228260044AC16002F108042032D1
:102680000460426010BD00BFD89A010870477047CF
:10269000FFF7E1BD73B590F89830144D0133DBB20C
:1026A000044680F89830A0F87230002628688DF82B
:1026B000076002F0C4FEA0B14FF0FF332868324635
:1026C0000DF1070102F08CFE9DF80730522B08D166
:1026D000B4F8703002331BB2F12BA8BF3346A4F814
:1026E0007030201D08F0B1F802B070BD98120020C3
:1026F00010B59C21044615F07EFA204610BD00005E
:1027000010B50446FFF7BCFD014B2360204610BD09
:10271000089B0108F02070474FF4A07070472920F3
:10272000FFF73CB82820FFF739B808B5FFF70AF8DB
:10273000CA20FFF733F8C320FFF714F80820FFF78B
:1027400011F85020FFF70EF8CF20FFF727F80020F0
:10275000FFF708F8C120FFF705F83020FFF702F86F
:10276000ED20FFF71BF86420FEF7FCFF0320FEF7C7
:10277000F9FF1220FEF7F6FF8120FEF7F3FFE820B5
:10278000FFF70CF88520FEF7EDFF0020FEF7EAFFCB
:102790007820FEF7E7FFCB20FFF700F83920FEF79F
:1027A000E1FF2C20FEF7DEFF0020FEF7DBFF3420E8
:1027B000FEF7D8FF0220FEF7D5FFF720FEF7EEFF69
:1027C0002020FEF7CFFFEA20FEF7E8FF0020FEF70B
:1027D000C9FF0020FEF7C6FFB120FEF7DFFF002093
:1027E000FEF7C0FF1B20FEF7BDFFB620FEF7D6FFA9
:1027F0000A20FEF7B7FFA220FEF7B4FFC020FEF7C5
:10280000CDFF1020FEF7AEFFC120FEF7C7FF10205E
:10281000FEF7A8FFC520FEF7C1FF4520FEF7A2FF87
:102820001520FEF79FFFC720FEF7B8FF9020FEF7A8
:1028300099FF3620FEF7B2FFC820FEF793FFF22083
:10284000FEF7ACFF0020FEF78DFFB020FEF7A6FFDD
:10285000C220FEF787FFB620FEF7A0FF0A20FEF792
:1028600081FFA720FEF77EFF2720FEF77BFF0420D5
:10287000FEF778FF2A20FEF791FF0020FEF772FF97
:102880000020FEF76FFF0020FEF76CFFEF20FEF741
:1028900069FF2B20FEF782FF0020FEF763FF002078
:1028A000FEF760FF0120FEF75DFF3F20FEF75AFFB5
:1028B000F620FEF773FF0120FEF754FF0020FEF71D
:1028C00051FF0620FEF74EFF2C20FEF767FFC820C1
:1028D000FEF7B2FF2620FEF761FF0120FEF742FF60
:1028E000E020FEF75BFF0F20FEF73CFF2920FEF7FC
:1028F00039FF2420FEF736FF0C20FEF733FF0E20B1
:10290000FEF730FF0920FEF72DFF4E20FEF72AFFCD
:102910007820FEF727FF3C20FEF724FF0920FEF772
:1029200021FF1320FEF71EFF0520FEF71BFF1720D7
:10293000FEF718FF1120FEF715FF0020FEF712FF2B
:10294000E120FEF72BFF0020FEF70CFF1620FEF71C
:1029500009FF1B20FEF706FF0420FEF703FF1120EE
:10296000FEF700FF0720FEF7FDFE3120FEF7FAFE1E
:102970003320FEF7F7FE4220FEF7F4FE0520FEF7B7
:10298000F1FE0C20FEF7EEFE0A20FEF7EBFE2820FB
:10299000FEF7E8FE2F20FEF7E5FE0F20FEF7E2FE31
:1029A0001120FEF7FBFEC820FEF746FF2920FEF7A8
:1029B000F5FEBDE808402C20FEF7F0BE08B5FEF796
:1029C000C1FE0321D320FEF705FF80B208BD10B57C
:1029D000C4B2022203212046FEF76AFE0A20FEF757
:1029E000AFFE204600220321FEF762FEBDE8104044
:1029F0000220FEF7A5BE38B50446E4B2FEF756FE47
:102A000000212046FEF76CFE012105462046FEF718
:102A100067FE40EA052080B238BD10B5C4B240213F
:102A20002046FEF75DFE030607D54C212046FEF743
:102A300057FE003818BF012010BD01224B2120464F
:102A4000FEF736FE204600224B21FEF731FE002025
:102A5000F2E773B50423C4B20E461546D7210DEB39
:102A600003022046FEF756FE019B1BBA1A0DC3F364
:102A70000B23328020462B8001224B21FEF718FECB
:102A800000224B212046FEF713FE02B070BD00006D
:102A900010B50A4B1A78904204460DD059788842F6
:102AA0000AD00AB141B901229C54FEF7FFFD20462D
:102AB000BDE81040FFF78BBF10BD00BF60150020C0
:102AC00010B5C4B209212046FEF70AFE40F001000D
:102AD000C2B209212046BDE81040FEF7E9BD10B59D
:102AE000C4B209212046FEF7FBFD092100F0FE02D9
:102AF0002046BDE81040FEF7DBBD38B5C4B20D4638
:102B000020460A21FEF7ECFD2843C2B20A212046E6
:102B1000BDE83840FEF7CCBD07B50190FEF7C7FD14
:102B200001981F21FFF7E9FF019803B05DF804EB5E
:102B3000FFF7C6BF38B5C4B20D4620460A21FEF7DE
:102B4000CFFD20EA0500C2B20A212046BDE8384088
:102B5000FEF7AEBD10B50446FFF7C1FF20461F21AA
:102B6000BDE81040FFF7E6BF10B5C0B20C460B2120
:102B7000FEF7B6FD204010BD1F21FFF7F5BF0A4646
:102B8000C0B20B21FEF794BD1F21FFF7F8BF38B587
:102B9000C4B20D4620461721FEF7A2FD20EA05002B
:102BA000C2B217212046BDE83840FEF781BD70B59E
:102BB000C4B2064604212046FEF792FD042100F02F
:102BC000FB0205462046FEF773FD3046F021FFF775
:102BD000DEFF05F0F80220460421FEF769FD4922D8
:102BE00020212046FEF764FD0220FEF7A9FD2046C5
:102BF00001222121FEF75CFD20469A224121FEF7A9
:102C000057FD204601224A21FEF752FD20460122AF
:102C10004B21FEF74DFD204600224B21FEF748FDDB
:102C2000204601225621FEF743FD2046012258216D
:102C3000FEF73EFD204601224021FEF739FD2046E9
:102C4000FF220B21FEF734FDBDE870400220FEF7A5
:102C500077BD0000054BD3F8882042F47002C3F81A
:102C600088204FF000629A60704700BF00ED00E0DE
:102C700008B50B4B1A6842F400721A601A6842F4E5
:102C800080621A601A6842F480721A60032000F0B1
:102C90002FF80020FFF712F8FEF7DCFD002008BD3A
:102CA000003C0240034A044B11681B780B4413603C
:102CB000704700BF6415002078000020014B1868A1
:102CC000704700BF6415002038B50446FFF7F6FFD3
:102CD000631C1CBF054B1B78054618BFE418FFF7A3
:102CE000EDFF431BA342FAD338BD00BF780000209C
:102CF0000749CA6822F4E0620302120403F4E063A5
:102D0000120C134343F0BF6343F40033CB607047AE
:102D100000ED00E0164B30B5DC68C4F30224C4F1CA
:102D20000705231D042D28BF0425062B4FF0FF3374
:102D30008CBF033C002403FA05F521EA0501A340FA
:102D400022EA0302A140002841EA0203ACBF00F1DD
:102D50006040084A4FEA0313B8BF00F00F00DBB22F
:102D6000AABF00F56140135480F8003330BD00BFA6
:102D700000ED00E014ED00E0002808DB420901232B
:102D800000F01F0003FA00F0014B43F822007047E7
:102D900000E100E010B5044650B1437903F0FF02B2
:102DA00013B90271FEF776FD01236371002010BD97
:102DB0000120FCE710B5044630B390F8393003F039
:102DC000FF021BB980F83820FEF77CFD226861689D
:102DD000022384F83930136823F440330B43136023
:102DE000536BA16823F007030B435363136CE16833
:102DF00023F47F5323F03F030B431364002001238C
:102E0000E06384F8393010BD0120FCE7704770475B
:102E1000036870B55E681D68F207044614D5E905BD
:102E200012D51A6822F480721A60C26B42F0010255
:102E3000C26301229A60042380F83930002380F8AD
:102E40003830436903B19847B20616D5AB0414D5A0
:102E500023681A6822F400521A6020229A60E36BF9
:102E600043F00203E363042384F83930002384F839
:102E7000383063690BB120469847300716D52905CD
:102E800014D523681A6822F400621A6008229A6036
:102E9000E36B43F00403E363042384F83930002335
:102EA00084F8383063690BB12046984772070BD518
:102EB0006B0509D523681A6822F480621A6004221F
:102EC0009A602046FFF7A2FFB00714D5A90512D5D6
:102ED00023681A6822F400721A6002229A60E36B77
:102EE000E363012384F83930002384F83830236900
:102EF0000BB120469847F20613D5EB0411D5236891
:102F00001A6822F480521A6010229A60E36BE3631D
:102F1000012384F83930002384F838302046FFF745
:102F200076FF70BDF0B590F83830012B4FF00203FA
:102F30002BD0012280F8393080F8382000EB0113C3
:102F4000D3E907425D6A184F44EA0242093C012C6A
:102F50009CBF05F07F431A434FEA0116036888BF00
:102F600042EA056299B9596A39400A435A62012C0A
:102F700082699A6103D8426A22F07F429A620123F1
:102F800080F83930002380F838301846F0BDD96910
:102F900039400A43DA618219012C92691A619CBF97
:102FA00025F07F451D62EAE7F0FFFC002DE9F74FB1
:102FB000DFF8C0916D4A00230D6801249C4004EAAB
:102FC000050CAC4340F0B9804D6805F003044FEAAE
:102FD00043080326671E06FA08F6012F6FEA060665
:102FE00034D8876807EA060ECF6807FA08F747EA79
:102FF0000E078760476827EA0C0EC5F300179F404D
:1030000047EA0E074760C76807EA060E8F6807FAA7
:1030100008F747EA0E07022CC76019D14FEAD30A16
:1030200000EB8A0A03F0070BDAF820704FEA8B0BEB
:103030004FF00F0E0EFA0BFE27EA0E0E0F6907FA7D
:103040000BF747EA0E07CAF8207001E0032CDAD12B
:10305000076804FA08F43E40264315F4403F066032
:103060006BD04FF0000ACDF804A0D9F84460404C72
:1030700046F48046C9F84460D9F8446006F48046B6
:103080000196019E23F0030606F1804606F59C3664
:1030900003F0030ED6F808804FEA8E0E0F2707FACA
:1030A0000EF7A04228EA07074ED004F58064A0423C
:1030B0004CD004F58064A0424AD004F58064A0425C
:1030C00048D004F58064A04246D004F58064A04254
:1030D00044D004F58064A04242D004F58064A0424C
:1030E00040D004F58064A0423ED004F58064A04244
:1030F0000CBF09240A2404FA0EF43C43B46094681B
:103100006FEA0C06EF0254BF34404CEA04049460AA
:10311000D468AF0254BF34404CEA0404D46054680D
:10312000AF0354BF34404CEA040454601468ED0308
:1031300054BF34404CEA040414600133102B7FF474
:103140003BAF03B0BDE8F08F5446D4E70124D2E78B
:103150000224D0E70324CEE70424CCE70524CAE701
:103160000624C8E70724C6E70824C4E7003C01405A
:1031700000000240003802400369194214BF0120D8
:10318000002070470AB1816170470904FBE7436979
:1031900001EA030221EA030141EA02418161704729
:1031A00001684B6913F480634FF0000210D06FF494
:1031B00080634B612023026380F83D3080F83E201D
:1031C000036C80F83C2043F0040303640120704743
:1031D000184670472DE9F84606460F4691461D46AB
:1031E0004FEA114A3368BAF1010F0CBF5C699C6960
:1031F00027EA0404A4B2B4FA84F46409A14501D016
:10320000002017E06A1CEED0FFF758FD089BC01A9B
:10321000A84201D8002DE5D100232022336386F88F
:103220003D2086F83E30326C86F83C3042F0200279
:1032300032640120BDE8F8862DE9F04104460F46CE
:10324000164698462568686927EA000080B2B8B13A
:103250006B695A0516D52B6843F400732B606FF425
:1032600080636B6120220023236384F83D2084F86F
:103270003E30226C42F00402226484F83C3001208B
:10328000BDE8F081731CDED0FFF718FDA0EB08004D
:10329000B04201D8002ED5D100232022236384F828
:1032A0003D2084F83E30226C42F02002E4E770B505
:1032B00004460D46164621684B6913F0400301D0C1
:1032C000002010E04A69D2060ED56FF010024A6164
:1032D0002022236384F83D2084F83E30226C22644F
:1032E00084F83C30012070BDFFF7E8FC801BA84249
:1032F00001D8002DDFD100232022236384F83D2054
:1033000084F83E30226C42F02002E8E770B50446B3
:103310000D46164623685B695B0701D5002070BD2A
:103320002046FFF73DFFA8B96A1CF3D0FFF7C6FCA3
:10333000801BA84201D8002DECD10023202223635A
:1033400084F83D2084F83E30226C84F83C3042F012
:10335000200222640120E2E770B504460D461646BD
:1033600023685B691B0601D5002070BD2046FFF76E
:1033700017FFA8B96A1CF3D0FFF7A0FC801BA84276
:1033800001D8002DECD100232022236384F83D20B6
:1033900084F83E30226C84F83C3042F020022264F3
:1033A0000120E2E72DE9F0431546026885B0DDE92A
:1033B0000C789946136843F4807313600E463B46BD
:1033C000CDF8008000224FF001110446FFF702FF04
:1033D000236838B11B68DB0502D54FF40073236402
:1033E00003200AE006F0FE061E61194943463A46EC
:1033F0002046FFF721FF18B1012005B0BDE8F0839A
:10340000236803905A6903929B69039342463946A5
:103410002046039BFFF7A0FF40B1236C042B01BFA4
:103420002268136843F400731360E5E7B9F1010FF4
:10343000236802D1EDB21D61DFE72A0A1A6139461D
:1034400042462046FFF788FF0028E6D12368F1E7CF
:10345000020001002DE9FF479A46036815461A68E5
:1034600042F480621A601A68DDE90C7842F48072D6
:103470001A600E463B46CDF8008000224FF0011145
:103480000446FFF7A7FE236848B11B68DB0502D599
:103490004FF400732364032004B0BDE8F0875FFAA3
:1034A00086F906F0FE061E612A4943463A46204642
:1034B000FFF7C2FE08B10120EEE7236803905A69C6
:1034C00003929B690393424639462046039BFFF7CC
:1034D00043FF40B1236C042B01BF2268136843F4FF
:1034E00000731360E7E7BAF1010F23681AD1EDB258
:1034F0001D61424639462046FFF72EFF0028E9D1DC
:103500002268136843F4807313604FF00111024680
:10351000CDF800803B462046FFF75CFE226860B194
:103520001368B3E72A0A1A61394642462046FFF774
:1035300013FF0028CED12368D9E749F001031361B6
:10354000044943463A462046FFF776FE003818BF46
:103550000120A1E70200010070B5044608B901206E
:1035600070BD90F83D3003F0FF021BB980F83C209D
:10357000FEF7CAF9242384F83D3023681A6822F044
:1035800001021A601A6842F400421A601A6822F4B2
:1035900000421A6000F074FE3F4B65689D4294BF84
:1035A0003E4B3F4B98428CBF00230123002BD6D1CA
:1035B0002268394E53683B49B0FBF1F123F03F03D9
:1035C0000B43B542536088BF4FF49676136A88BFA9
:1035D000714323F03F0384BF4FF47A76B1FBF6F1D9
:1035E000013119431162D169431E2B4821F44F4127
:1035F000854221F0FF0132D86D0040F6FC70B3FB2C
:10360000F5F30133034242D0C3F30B030B43D36101
:10361000D4E907301168034321F0C0010B43136064
:103620009168D4E9030321F40341034321F0FF012E
:103630000B439360D4E90530D168034321F0FF01C7
:103640000B43D360136843F0010313600020202371
:10365000206484F83D30206384F83E0080E7A06851
:1036600050B905EB4505B3FBF5F30133C3F30B0389
:103670007BB143F40043C9E719204543B3FBF5F39D
:103680000133C3F30B0323B143F44043BEE70423E8
:10369000BCE70123BAE700BFA08601007F841E00BB
:1036A000FF083D0040420F002DE9F74304469946CC
:1036B0000C9E0F469046FFF701FB94F83D30202BFF
:1036C000054603D0022003B0BDE8F08300903C49DA
:1036D000192301222046FFF77DFD0028F2D194F83E
:1036E0003C30012BEED02068012384F83C30036885
:1036F000D9075EBF036843F001030360036823F446
:1037000000630360212384F83D30402384F83E3079
:10371000002323640A9B6362BDF82C306385638DAC
:103720002385284BE362CDE900654B464246394686
:103730002046FFF737FE00282AD00120C3E7FFF715
:103740000BFE40B1236C042B01BF2268136843F4C5
:1037500000731360F1E7636A27681A4612F8011BC9
:1037600039616262628D218D013A92B262857A6915
:10377000481E80B2520720850AD548B15A783A616E
:1037800002336362638D013B02399BB221856385FD
:10379000238D2A4631462046002BD0D1FFF7B6FDB7
:1037A0000028CFD12268136843F4007313602023EC
:1037B00084F83D3084F83C0084F83E0083E700BF85
:1037C000020010000000FFFF2DE9F043044687B01F
:1037D0009946109F0D469046FFF770FA94F83D30D9
:1037E000202B064604D00225284607B0BDE8F0830A
:1037F00000907649192301222046FFF7EBFC0028B0
:10380000F1D194F83C30012BEDD02068012384F8ED
:103810003C300368DB075EBF036843F001030360CD
:10382000036823F400630360222384F83D304023BF
:1038300084F83E30002323640E9B6362BDF83C3065
:103840006385638D2385624BE3622946CDE900766B
:103850004B4642462046FFF7FDFD054608B10125CF
:10386000C2E7228D2368B2B902905A6902929A691E
:103870000292029A1A6842F400721A60DFF85481C8
:10388000238D002B2CD1202284F83D2084F83C305D
:1038900084F83E30A8E7012A0AD11A6822F480622F
:1038A0001A6003905A6903929A690392039AE1E7B6
:1038B000022A0ED11A6822F480621A601A6842F451
:1038C00000621A6004905A6904929B690493049BF5
:1038D000D4E705905A6905929B690593059BCDE74E
:1038E000032B56D8012B15D1324639462046FFF717
:1038F000DEFC0028B3D123681A69636A1A70636A10
:1039000001336362238D013B2385638D013B9BB2B1
:103910006385B5E7022B00963B464FF00002414617
:10392000204619D1FFF756FC002898D123681A6861
:1039300042F400721A601A69636A1A70626A531C50
:103940006362238D013B2385638D013B9BB26385BD
:1039500023681B695370D2E7FFF73CFC00287FF413
:103960007EAF23681A6822F480621A601A69636A5B
:103970001A70636A009601336362238D013B2385CD
:10398000638D013B9BB2638502463B464146204620
:10399000C8E7324639462046FFF789FC00287FF405
:1039A0005EAF23681A69636A1A70626A531C6362A5
:1039B000238D013B2385638D013B9BB26385236887
:1039C000596949077FF55CAFC3E700BF02001000EB
:1039D0000000FFFF0400010010B590F83D30202BDF
:1039E000DCB216D1242380F83D3003681A6822F037
:1039F00001021A605A6A22F010025A625A6A11438E
:103A000059621A6842F001021A6080F83D400020B5
:103A100010BD0220FCE730B590F83D30202BDCB221
:103A200016D10268242380F83D30136823F0010387
:103A30001360556A4FF6F0732B400B439BB25362F1
:103A4000136843F00103136080F83D40002030BD4F
:103A50000220FCE70068D1F800C0D201843283184C
:103A60002DE9F043C6685D684C68D1F8189005F4FC
:103A700070455D60C5680CF10107C5F30B45C6F3E1
:103A80000B463D44264445EA06455D60C568CE6860
:103A9000C5F30A052E449D6805F470459D60C7680E
:103AA0008D68C7F30A0701353D4445EA06459D6028
:103AB0001D690E6925F007051D614FF0000E1E619E
:103AC0009D6991F8327091F83180C3F818E091F84F
:103AD000305045EA096545EA082545EA07459D61F4
:103AE0005D6925F0FF055D614D695D61DD6925F466
:103AF000E06525F00705DD61D1E907573D43DD614C
:103B00009D6A4D6AC3F828E09D621EB3012E23D042
:103B1000B51E022D22D9072E0CBF02250125DE6A13
:103B200006F0E026DE62A4EB0C048E6AC96A6C43E0
:103B30006E43033444EA0644DC621C6B24F4FF64E5
:103B400024F007041C631963835843F00103835076
:103B5000BDE8F0830425E2E70325E0E70225DEE780
:103B600038B50446002863D090F8A13003F0FF0276
:103B70001BB980F8A020FDF723FF022384F8A130B1
:103B800023689A6922F070429A61D4E901200243C5
:103B9000E06899690243206902430A439A619A687E
:103BA000244960690A409A609A6842EA0042A06922
:103BB00002439A60DA68E0690A40DA60DA6842EA49
:103BC0000042206A0243DA601A69606A0A401A6198
:103BD0001A6942EA0042A06A02431A615A69114016
:103BE00059615A69E16A42EA0142216B0A435A610A
:103BF000D96A94F8360094F8355001F07F41D962C3
:103C0000D96A94F834200A4342EA052242EA004283
:103C1000DA625A6B42F006025A639A6942F0010274
:103C20009A6100200123C4F8A40084F8A13038BDB3
:103C30000120FCE700F800F070477047036870B59A
:103C40009E6B5D6B7207044614D5690712D55A6BDB
:103C500022F004025A630422DA63D0F8A43043F05D
:103C60000103C0F8A430002380F8A12080F8A03020
:103C7000FFF7E2FFB20716D5AB0714D523685A6BDE
:103C800022F002025A630222DA63D4F8A43013430A
:103C9000C4F8A430042384F8A130002384F8A030B1
:103CA0002046FFF7C9FFF00710D5E9070ED52368B6
:103CB0005A6B22F001025A630122DA63002384F86E
:103CC000A12084F8A0302046FDF76CFA320711D508
:103CD0002B070FD523685A6B22F008025A6308227B
:103CE000DA63012384F8A130002384F8A030204651
:103CF000FFF7A3FF70BD2DE9F04190F8A030012B34
:103D000006460F4694464FF002001FD04FF00108C0
:103D100086F8A08086F8A10034240D4604FB0264D6
:103D20000FCD38340FC40FCD0FC40FCD0FC42B6887
:103D30002360304662463946FFF78CFE3368002028
:103D4000C3F8248086F8A18086F8A000BDE8F08141
:103D500090F8A030012B4FF0020312D080F8A13070
:103D600003685A6B22F001025A63074A11645A6BC6
:103D700042F001025A63012380F8A130002380F849
:103D8000A0301846704700BF006801402DE9F3419C
:103D9000044640B30368DD0710D4236898075ED457
:103DA00023681A0700F1A08023685B0700F1C08038
:103DB000A069002840F0288100202BE08F4B9A68F2
:103DC00002F00C02042A07D09A6802F00C02082ABA
:103DD0000BD15A68510208D5884B1B689A03DCD571
:103DE0006368002BD9D1012014E06268B2F5803FEE
:103DF00013D11A6842F480321A60FEF75FFF7F4EDB
:103E0000054633689B03C8D4FEF758FF401B64285F
:103E1000F7D9032002B0BDE8F081784DB2F5A02FAC
:103E20002B6807D143F480232B602B6843F4803345
:103E30002B60E2E723F480332B602B6823F480238C
:103E40002B60002AD9D1FEF739FF06462B689F0365
:103E5000A3D5FEF733FF801B6428F7D9D9E7674B5A
:103E60009A6812F00C0F07D09A6802F00C02082A28
:103E700011D15B685E020ED4604A13689D0702D5BB
:103E8000E368012BAFD11368216923F0F80343EAFB
:103E9000C103136084E7E268594BB2B101221A6092
:103EA000FEF70CFF554D06462B68980707D52B6883
:103EB000226923F0F80343EAC2032B6070E7FEF7A0
:103EC000FDFE801B0228EFD9A3E71A60FEF7F6FE7D
:103ED0004A4E0546336899077FF562AFFEF7EEFE5E
:103EE000401B0228F6D994E76269454B82B1012252
:103EF000C3F8802EFEF7E2FE404E0546736F9F0723
:103F00003FF552AFFEF7DAFE401B0228F6D980E7F4
:103F1000C3F8802EFEF7D2FE384E0546736F980721
:103F20007FF542AFFEF7CAFE401B0228F6D970E7C4
:103F3000324B1A6C12F0805228D101921A6C42F066
:103F400080521A641B6C03F080530193019B01277C
:103F50002C4D2B68D9051BD5A368284D012B27D1E3
:103F60002B6F43F001032B67FEF7A8FE234E054697
:103F700041F28838336F9B0739D5002F3FF418AFD3
:103F80001E4A136C23F08053136411E70027DFE708
:103F90002B6843F480732B60FEF790FE06462B6877
:103FA000DA05D9D4FEF78AFE801B0228F7D930E75C
:103FB000052B04D12B6F43F004032B67D0E72A6F46
:103FC00022F001022A672A6F22F004022A67002BDE
:103FD000CAD1FEF773FE41F2883806462B6F980768
:103FE000CBD5FEF76BFE801B4045F7D911E7FEF7F6
:103FF00065FE401B4045BDD90BE700BF00380240BD
:104000000000474200700040364DAB6803F00C03DF
:10401000082B3DD0344B002202281A662BD1FEF724
:104020004DFE06462B6899011FD4D4E9073213438D
:10403000626A43EA8213E26A43EA0263A26A5208AE
:10404000013A43EA02436B60274B264D01221A6670
:10405000FEF734FE04462B689A013FF5ADAEFEF73D
:104060002DFE001B0228F6D9D3E6FEF727FE801BA3
:104070000228D7D9CDE6FEF721FE04462B689B0126
:104080007FF59AAEFEF71AFE001B0228F6D9C0E6AD
:1040900001283FF4BFAE6B68E26903F480019142EE
:1040A0007FF4A1AE216A03F03F028A427FF49BAE07
:1040B000616A47F6C0721A40B2EB811F7FF493AE7B
:1040C000A26A520803F44031013AB1EB024F7FF487
:1040D0008AAEE26A03F07063B3EB026F3FF46CAE3A
:1040E00081E600BF0038024000004742134908B58E
:1040F0008B6803F00C03042B1CD0082B1CD14A68DE
:104100004B68496813F4800314BF0D480D48C1F390
:10411000881118BF002302F03F02A1FB0001FCF749
:10412000B7F8064B5B68C3F3014301335B00B0FB98
:10413000F3F008BD0248FCE70248FAE70038024005
:1041400000127A000024F4002DE9F0410D460446E7
:1041500010B90120BDE8F081444B1A6802F00F024B
:104160008A4228D3226897072DD4D00741D43F4BE9
:104170001A6802F00F02AA4266D8226851076CD46E
:10418000130707D53A4A2169936823F4604343EA49
:10419000C1039360FFF7AAFF354B364A9B68C3F310
:1041A0000313D35CD840344B1860344B1868FDF7C8
:1041B00085FD0020CEE7CAB21A701B6803F00F031A
:1041C0008B42C6D1CEE72A4B12F0040F1EBF99686E
:1041D00041F4E0519960160742BF996841F460418B
:1041E00099602349A0688B6823F0F00303438B6038
:1041F000BBE762681E4B012A1CD11B6813F4003F09
:10420000A7D01B4EB36823F003031343B360FEF73C
:1042100055FD41F288380746B368626803F00C0325
:10422000B3EB820FA3D0FEF749FDC01B4045F3D985
:1042300003208FE7911E01291B6802D813F0007F2D
:10424000DEE713F0020FDBE7EAB21A701B6803F037
:104250000F03AB427FF47DAF8FE70549E0688B68C1
:1042600023F4E05303438B608AE700BF003C024025
:1042700000380240349B0108740000207C000020BC
:10428000044B054A9B68C3F38223D35C034A10683E
:10429000D840704700380240449B01087400002059
:1042A0000F2303600B4B9A6802F0030242609A6886
:1042B00002F0F00282609A6802F4E052C2609B68E9
:1042C000DB0803F4E0530361034B1B6803F00F03A7
:1042D0000B60704700380240003C0240036813F056
:1042E000430FF7B5044640F08C80236813F00C0FA1
:1042F00045D08B4B8B4D00221A67FEF7DFFC06463C
:104300002B689F0000F1CF8021684E0715D5D4E9B6
:104310000403D5F888201B0602F0E04243EA80132C
:104320001343C5F88830D5F88C30226A23F4F8534B
:10433000013A43EA0223C5F88C300D0714D5794AB7
:10434000A369D2F8881020691B0701F0706143EA65
:1043500080130B43C2F88830D2F88C30616A23F4A2
:1043600040330B43C2F88C306D4B6E4E01221A67FE
:10437000FEF7A4FC05463368980040F19B80236853
:104380009B0633D500230193664B674D1A6C42F0B0
:1043900080521A641B6C03F080530193019B2B68BD
:1043A00043F480732B60FEF789FC06462B68D90521
:1043B00040F187805B4D2B6F13F4407340F0888091
:1043C000A36A03F44072B2F5407F564A40F0A480DD
:1043D000916823F0704021F4F81120F440700143FB
:1043E0009160116FC3F30B030B431367206810F048
:1043F00010001FBF4D4B94F82C20C3F8E021002083
:104400004FE0474B474E00229A66FEF757FC0546A1
:1044100033681F013FD42168CD0741BFD4E9012390
:104420001B0743EA8213C6F88430880715D53D4A36
:10443000E368D2F8840065681B0600F0E04043EAB8
:1044400085130343C2F88430D2F88C00E36920F06E
:104450001F00013B0343C2F88C3049060AD5E368CC
:1044600062681B0643EA8213A26843EA02732D4A7C
:10447000C2F884302A4B2B4E01229A66FEF71EFCAE
:10448000054633681A013FF530AFFEF717FC401BB5
:104490000228F6D904E0FEF711FC401B0228B7D928
:1044A000032003B0F0BDFEF709FC801B02287FF655
:1044B00027AFF5E7FEF702FC401B02287FF65BAF53
:1044C000EEE7FEF7FBFB801B02287FF66FAFE7E706
:1044D000A26A02F4407293423FF472AF2B6F104A0B
:1044E0000121C2F8401E23F440730021C2F8401E8F
:1044F0002B672B6FDA077FF563AFFEF7DFFB41F227
:10450000883706462B6F9B073FF55AAFFEF7D6FB61
:10451000801BB842F6D9C3E7916821F4F8115FE730
:10452000000047420038024000700040001047423F
:1045300038B50D460446C8B190F82C3003F0FF02A0
:104540001BB980F82D20FDF74DFB022384F82C3099
:10455000211D206800F004FD62682068294600F0F3
:104560003AFD012384F82C30002038BD0120FCE7FF
:1045700070B590F82C30022B05460E46D8B212D0FA
:1045800000F0FB04012C0FD1022385F82C302868A1
:1045900000F057FD3368022B06BF052385F82C3049
:1045A00085F82C40002070BD0120FCE738B590F85C
:1045B0002C30022B0446D8B20DD094F82C30012BAD
:1045C000DDB209D10223206884F82C3000F05FFDB1
:1045D00084F82C50002038BD0120FCE72DE9F34180
:1045E0001D46174688460646FEF768FB3D442C1AD2
:1045F000FEF764FB224B1B68C3F3CB3305466343D2
:1046000032680193936838EA030301D000202DE05B
:104610007B1CF7D0FEF752FB401BA04229D3336826
:104620005A6822F0E0025A607268B2F5827F0AD1BD
:10463000B268B2F5004F02D0B2F5806F03D11A68AC
:1046400022F040021A60B26AB2F5005F07D11A6820
:1046500022F400521A601A6842F400521A600123D0
:1046600086F85130002386F85030032002B0BDE8B0
:10467000F081019B002B019B08BF0024013BBFE799
:104680007400002038B513464268B2F5827F0446B4
:104690001FD18268B2F5004F02D0B2F5806F07D10A
:1046A00025682868B2F5806F20F04000286007D0A8
:1046B0000A4680212046FFF791FF20B9002038BD2F
:1046C0000A460121F6E7636D43F02003636503208A
:1046D000F5E70A460121EEE737B51346124A156899
:1046E000124AB5FBF2F54FF47A72554342680195D0
:1046F000B2F5827F04460BD10A468021FFF76EFF98
:1047000078B1636D43F020036365032003B030BDCF
:10471000019B33B1019B013B019323689B681B06FE
:10472000F6D40020F2E700BF7400002000366E01CE
:1047300010B50446002855D0436A002B4ED142687C
:10474000B2F5827F00D0C3610023A36294F8513098
:1047500003F0FF0223B984F850202046FDF70CFA3D
:104760002168A068A269022384F851300B6823F005
:1047700040030B60636800F4044003F48273034356
:10478000E06800F400600343206900F00200034386
:10479000606900F00100034302F400700343E06924
:1047A00000F038000343206A00F080000343A06A51
:1047B00000F4005003430B60636A120C03F0100313
:1047C00002F004021A434A60CB6923F40063CB6110
:1047D00000200123606584F8513010BD0023C0E93A
:1047E0000433B1E70120F8E72DE9F3411E4690F8C4
:1047F0005030012B04460D46174600F0A1800123DE
:1048000080F85030FEF75AFA94F85130012B804668
:10481000D8B240F09380002D5ED0002F5CD0A2680B
:104820002563032384F85130B2F5004F4FF00003A5
:104830006365C4E91033E786A363A387E387A7868C
:10484000236807D11A6822F040021A601A6842F4FD
:1048500080421A601A68E16852065EBF1A6842F028
:1048600040021A60B1F5006F626841D10AB1012FB0
:1048700007D135F8022BDA602563E38E013B9BB24A
:10488000E386E38E9BB2A3B9424631462046FFF74A
:1048900023FF00284FD1A36833B901932368DA6856
:1048A00001929B680193019B606D003818BF012045
:1048B00012E022689368980705D5236B33F8021B32
:1048C000D1602363D9E7FEF7F9F9A0EB0800B04205
:1048D0000BD3711CD5D00320012384F85130002361
:1048E00084F8503002B0BDE8F081002EC9D1F2E763
:1048F0000AB1012F08D12A781A73236B013323637D
:10490000E38E013B9BB2E386E38E9BB2002BBBD0D0
:1049100023689A68920702D5226B1278ECE7FEF7BB
:10492000CDF9A0EB0800B04202D3731CECD0D2E763
:10493000002EE9D1CFE720236365ACE70220CBE767
:104940000220CFE72DE9F7431E4690F850300A9F2A
:10495000012B04460D46914600F0E680012380F8C5
:104960005030FEF7ABF994F851306268012B804665
:10497000D9B20AD0B2F5827F40F0D480A368002B70
:1049800040F0D080042940F0CD80002D40D0B9F116
:10499000000F3DD0002E3BD094F85130C4F8389031
:1049A000042B1CBF052384F8513000236365C4E940
:1049B00010332368E687E6861968A687490658BF3C
:1049C0001968256358BF41F04001A68658BF196099
:1049D000E168B1F5006F52D10AB1012E07D135F867
:1049E000022BDA60E38E2563013B9BB2E38601254F
:1049F000E38E9BB273B9E38F9BB25BB942463946F3
:104A00002046FFF769FE002800F0818020236365BF
:104A100001202BE021688B689E070DD5E38E9BB2A9
:104A200053B14DB1236B33F8022BCA602363E38E7D
:104A3000013B9BB2E38600258A6812F001020CD08C
:104A4000E38F9BB24BB1A36BC96823F8021BA3632E
:104A5000E38F013B9BB2E3871546FEF72FF9A0EBEE
:104A60000800B842C4D3781CC2D00320012384F8C4
:104A70005130002384F8503003B0BDE8F0830AB110
:104A8000012E08D12A781A73236B01332363E38E36
:104A9000013B9BB2E38601252DE0226893689907CC
:104AA0000ED5E38E9BB25BB155B1236B1B781373AC
:104AB000236B01332363E38E013B9BB2E386002526
:104AC0002268916811F001010DD0E38F9BB253B1C0
:104AD000A36BD2681A70A36B0133A363E38F013B0E
:104AE0009BB2E3870D46FEF7E9F8A0EB0800B84259
:104AF0000AD37B1CB9D1E38E9BB2002BCDD1E38FBF
:104B00009BB2002BC9D179E7002FF4D1ADE7A368A0
:104B1000002BABD123680190DA6801929B68019366
:104B2000019BA3E70220A1E70220A5E72DE9F743B7
:104B30001D464368B3F5827F0446894617460CD16B
:104B4000836853B9042380F85130134600950A4610
:104B5000FFF7F8FE03B0BDE8F08394F85030012B66
:104B600000F08680012384F85030FEF7A7F894F80F
:104B70005130012B8046D8B278D1B9F1000F5CD00A
:104B8000002F5AD0A268C4F8389000260423B2F54A
:104B9000004F84F85130C4E9106666652368E787E2
:104BA000A7872663A686E68607D11A6822F0400208
:104BB0001A601A6822F480421A601A6856065EBFAC
:104BC0001A6842F040021A60E368F3B1E38F9BB2C7
:104BD000FBB123689A68D20739D5DA68A36B23F84A
:104BE000022BA363E38F013B9BB2E387EEE72368CD
:104BF0009A68D00718D5A26B1B7B1370A36B013387
:104C0000A363E38F013B9BB2E387E38F9BB2002B4F
:104C1000EDD1424629462046FFF734FD18BB606DB2
:104C2000003818BF012008E0FEF748F8A0EB0800A4
:104C3000A84209D3691CE8D00320012384F851302D
:104C4000002384F8503085E7002DDED1F4E7FEF72D
:104C500035F8A0EB0800A84202D36B1CB6D0EBE7F6
:104C6000002DB3D1E8E720236365D8E70220E4E70D
:104C700002206FE77047000090F83D30012B30D1E3
:104C8000022380F83D300368DA6842F00102DA60FE
:104C9000154A93421AD0B3F1804F17D0A2F57C4247
:104CA000934213D002F5806293420FD002F58062E6
:104CB00093420BD002F57842934207D002F570522E
:104CC000934203D0A2F59432934204D19A6802F041
:104CD0000702062A03D01A6842F001021A60002077
:104CE00070470120704700BF0000014070477047C7
:104CF0007047704703681A69910710B504460ED5CE
:104D0000DA6892070BD56FF002021A61012202776E
:104D10009B699B0777D0FFF7EAFF0023237723687F
:104D20001A69500710D5DA6851070DD56FF00402E3
:104D30001A61022222779B6913F4407F204668D0D3
:104D4000FFF7D5FF0023237723681A6912070FD5D1
:104D5000DA6810070CD56FF008021A610422227776
:104D6000DB69990720465AD0FFF7C1FF002323775C
:104D700023681A69D20610D5DA68D0060DD56FF00F
:104D800010021A6108222277DB6913F4407F204663
:104D90004BD0FFF7ACFF0023237723681A69D107B4
:104DA00008D5DA68D20705D56FF001021A612046EE
:104DB000FCF744FD23681A69100608D5DA68110665
:104DC00005D56FF080021A61204600F0C8F823680C
:104DD0001A69520608D5DA68500605D56FF0400208
:104DE0001A612046FFF785FF23681A69910622D5CC
:104DF000DA6892061FD56FF0200220461A61BDE8DE
:104E0000104000F0ABB8FFF771FF2046FFF770FFCE
:104E100083E7FFF76BFF2046FFF76AFF92E7FFF794
:104E200065FF2046FFF764FFA0E7FFF75FFF20461E
:104E3000FFF75EFFAFE710BD304A0368904212D023
:104E4000B0F1804F0FD0A2F57C4290420BD002F51A
:104E50008062904207D002F58062904203D002F552
:104E60007842904219D14A6823F070031343234AD1
:104E7000904229D0B0F1804F26D0A2F57C429042DA
:104E800022D002F5806290421ED002F580629042EC
:104E90001AD002F57842904216D0194A904213D0A7
:104EA00002F5806290420FD002F5806290420BD0F2
:104EB000A2F59832904207D002F58062904203D06A
:104EC00002F58062904203D1CA6823F44073134311
:104ED0004A6923F08003134303608B68C3620B6845
:104EE0008362064B984203D003F58063984201D158
:104EF0000B69036301234361704700BF0000014059
:104F00000040014010B5044630B390F83D3003F046
:104F1000FF021BB980F83C20FFF7ACFE022320689B
:104F200084F83D30211DFFF787FF012384F84630C8
:104F3000002084F83E3084F83F3084F8403084F814
:104F4000413084F8423084F8433084F8443084F8A7
:104F5000453084F83D3010BD0120FCE770477047B4
:104F60002DE9F043D1E907430A68D1F82490D1E94B
:104F70000158D1E903ECD1E905762343A2B943EA0C
:104F800009022A4342EA0803016843EA0E0343EA9E
:104F90000C033B4321F4FF41334321F07F010B43DA
:104FA00003600020BDE8F083026843EA090322F4AD
:104FB000F8421343036045EA0803426843EA0E03DC
:104FC00043EA0C033B4322F4FF42334322F07F02C7
:104FD00013434360E5E7CB6803F1FF3C4B69F0B551
:104FE0000F684C688E680D698969013B1B05013C9F
:104FF000013E013D0139013F240136022D0409061D
:1050000043EA0C335AB93B432343826833432B436F
:105010000B4302F07042134383600020F0BD8268AE
:1050200022F4700222F470421A43826044EA0603BA
:10503000C2683B432B430B4302F070421343C360EF
:10504000EBE770B5044615460269D1E90030034329
:10505000C868920D43EA4023920513438A68013AD7
:1050600043EA42132361FDF729FE0646A36913F0C4
:10507000200301D1184603E06B1CF7D00DB90320C3
:1050800070BDFDF71BFE801BA842EFD9F7E743690F
:1050900023F47F5323F03E0343EA410141610020A2
:1050A000704708B54FF0E0231B6901F03DFE012871
:1050B00003D0BDE8084000F0EDBB08BDEFF3058369
:1050C0002BB9064B186828B901221A6070476FF097
:1050D000050070474FF0FF30704700BFC817002031
:1050E00010B5EFF305845CB9084B1A68012A0AD1A0
:1050F000074AD47702221A6001F090FB204610BDC7
:105100006FF00500FBE74FF0FF30F8E7C81700200D
:1051100000ED00E0F0B587B0144600220B46059282
:10512000EFF30582D2B9C8B1002C2FD0A569002DAC
:1051300008BF1825691E3729AC462BD86168C907F6
:1051400028D466696EB1B208D4E9027E216857B1ED
:10515000BEF15F0F02D9246904B1EEB9059807B01A
:10516000F0BD8022F0E7BEF1000FF7D12469002CDA
:10517000F4D10C4605A9CDE900C192B2214601F057
:1051800020FB01281CBF00230593E7E74FF0180C14
:105190008022EFE71046E2E7CDE90147009501F0F4
:1051A000D8FA0590DAE710B5EFF3058424B910B109
:1051B00001F092FC204610BD6FF00500FBE7F7B54B
:1051C00004460E461546EFF305821AB10024204628
:1051D00003B0F0BD0028F9D08842F7D3E5B1D5E996
:1051E0000237BBB14F2FF1D901282AD103210091F9
:1051F000114600F0F8FC04460028E7D0DEB1002399
:105200001A46194600F0A4FD012814D0204601F0EA
:1052100001F9DBE7002FD9D1012C05D103220021B0
:10522000204600F02EFDE6E72046314600F072FDF4
:1052300004460028CAD055B92946204601F0C4F8D2
:10524000C5E71A4600F044FD04460028BED02D688C
:10525000F2E713B50C4608B3EFF30583B3B1E9B930
:1052600001AA019101F03FF8012814D1019B13B963
:10527000002002B010BD4FF0E0234FF08052C3F881
:10528000042DBFF34F8FBFF36F8FF1E700F068FF7E
:105290000128EDD02CB96FF00200EAE76FF00300AF
:1052A000E7E76FF00100E4E713B510B3EFF3058310
:1052B000B3B1002401A9019400F05FFE012815D1CB
:1052C000019B13B9002002B010BD4FF0E0234FF056
:1052D0008052C3F8042DBFF34F8FBFF36F8FF1E7F8
:1052E0001A46194600F034FD0128EBD06FF0020099
:1052F000E9E76FF00300E6E730B1EFF305830BB1A8
:1053000001F055B801F03EB87047F7B505460E46B6
:105310001446EFF305871FB10025284603B0F0BD02
:105320000028F9D00029F7D0DAB1D2E9023283B1EE
:105330004F2AF1D92269002AEED066694D43AE4268
:10534000EAD3009700F04FFC05460028E4D024681B
:1053500011E0002AE0D12369002BDDD16369002B25
:10536000DAD128460022314600F08BFC05460028A1
:10537000D2D0002CEBD12146284601F025F8CCE70D
:1053800073B51C46EFF30586C6B118B311B30BBB5A
:1053900001AA019300F08FFD012818D1019B13B9D8
:1053A000002002B070BD4FF0E0234FF08052C3F8F0
:1053B000042DBFF34F8FBFF36F8FF1E750B149B1A9
:1053C0003346224600F0C4FC0128E9D02CB96FF026
:1053D0000200E6E76FF00300E3E76FF00100E0E7AB
:1053E00037B51C46EFF30583C3B110B309B304BB53
:1053F00001AA019400F077FF012817D1019B13B98E
:10540000002003B030BD4FF0E0234FF08052C3F8CE
:10541000042DBFF34F8FBFF36F8FF1E748B141B158
:10542000224600F0FEFD0128EAD02CB96FF0020000
:10543000E7E76FF00300E4E76FF00100E1E7FFF753
:105440005BBF0000034B0360034B0B6080231360C2
:10545000704700BF6817002068150020034B0360E9
:10546000034B0B604FF4807313607047CC1B00201C
:10547000CC17002010B50F4B1A461B688342FBD394
:1054800054681119884201BF4168104609195160DA
:10549000446801198B4207D1074909688B421FBF35
:1054A00059681B68091941609042036018BF106079
:1054B00010BD00BF441C01202C1C00202DE9F04130
:1054C000044601F0F1F94248424D03680BBB4249E2
:1054D0004E071FBFCB1D23F0070301F58032D21A00
:1054E00014BF19464FF480320A443C4E083A22F069
:1054F0000702002373603160C2E90033531AC1E927
:1055000000230260364A1360364A13604FF00043AE
:105510002B602F68274255D1002C46D004F1080398
:1055200061071CBF23F007030833002B4AD02D4C22
:1055300026689E4246D3294A15686968994204D272
:10554000D5F800C0BCF1000F15D10068A84239D0D1
:10555000C91A2868D2F800801060102912D9E818FA
:1055600042070BD04FF0500383F31188BFF36F8FC6
:10557000BFF34F8FFEE72A466546DEE741606B606A
:10558000FFF778FF6B681649174A0868F61A1F4339
:1055900000232B6013682660864203F1010338BFA5
:1055A0000E6008F108046F60136001F021FA6307D0
:1055B0000AD04FF0500383F31188BFF36F8FBFF30E
:1055C0004F8FFEE70024F0E72046BDE8F08100BFE2
:1055D0002C1C0020301C0120301C0020441C012009
:1055E000381C0120341C01203C1C012010B504464D
:1055F00090B31A4A50F8043C1268134208D14FF095
:10560000500383F31188BFF36F8FBFF34F8FFEE713
:1056100050F8081C41B14FF0500383F31188BFF3D9
:105620006F8FBFF34F8FFEE723EA020340F8043C7D
:1056300001F03AF90A4A54F8043C1168A4F1080050
:105640000B441360FFF716FF064A1368BDE81040CD
:105650000133136001F0CCB910BD00BF301C012034
:10566000341C0120401C012000F108034FF0FF32E0
:10567000C0E90223436003610023036070470023F5
:105680000361704743684B609A688A609A6851600A
:1056900099600368086101330360704730B50C6896
:1056A000631C0AD103695A684A6091608B60596033
:1056B000036808610133036030BD00F1080213463E
:1056C00052681568A542FAD9EDE7D0E901120369DD
:1056D0008A6051605968814208BF5A6000220261A5
:1056E0001A68013A1A601868704700000848006894
:1056F000006880F308884FF0000080F3148862B6D9
:1057000061B6BFF34F8FBFF36F8F00DF00BF0000A4
:1057100008ED00E0DFF80C00016841F47001016061
:105720007047000088ED00E082B0002301930D4B2C
:105730001B68013308D04FF0500383F31188BFF387
:105740006F8FBFF34F8FFEE74FF0500383F3118845
:10575000BFF36F8FBFF34F8F019B002BFCD002B0C4
:10576000704700BF800000204FF0807340F8043C79
:10577000074B40F80C3C21F001016FF0020340F8A8
:10578000081C40F8202C40F8243C4438704700BFE7
:105790002957000800000000000000000000000081
:1057A000074B19680868B0E8F04F80F30988BFF329
:1057B0006F8F4FF0000080F311887047AFF30080C7
:1057C000941C01204FF0500383F31188BFF36F8FB7
:1057D000BFF34F8F0A4A13680133012B13600ED1B8
:1057E0004FF0E023D3F8043DDBB243B14FF0500358
:1057F00083F31188BFF36F8FBFF34F8FFEE77047BE
:1058000080000020084A136843B94FF0500383F327
:105810001188BFF36F8FBFF34F8FFEE7013B13601B
:105820000BB983F31188704780000020000000004E
:10583000EFF30980BFF36F8F154B1A681EF0100F3E
:1058400008BF20ED108A20E9F04F10602DE9090013
:105850004FF0500080F31188BFF34F8FBFF36F8F6D
:1058600001F05EF94FF0000080F3118809BC19685F
:105870000868B0E8F04F1EF0100F08BFB0EC108AB7
:1058800080F30988BFF36F8F704700BFAFF30080CC
:10589000941C012008B54FF0500383F31188BFF327
:1058A0006F8FBFF34F8F01F00DF828B14FF0E02359
:1058B0004FF08052C3F8042D002383F3118808BDF4
:1058C0004FF0E022002313619361054B4FF47A718E
:1058D0001B68B3FBF1F3013B53610723136170476E
:1058E000740000204FF0E02337B5D3F8001D3A4A8A
:1058F000914208D14FF0500383F31188BFF36F8FAB
:10590000BFF34F8FFEE7D3F8002D344B9A4208D1F6
:105910004FF0500383F31188BFF36F8FBFF34F8FA6
:10592000FEE72F4B1A78D2B20192FF221A701B7831
:105930002C4ADBB28DF803309DF8033003F050039E
:105940001370294A0723136000219DF80300000605
:1059500003F1FF340CD411B1032B136011D04FF0BD
:10596000500383F31188BFF36F8FBFF34F8FFEE7B0
:105970009DF803305B00DBB28DF803300121234634
:10598000E3E74FF440731360019B154A4FF0E024A6
:10599000DBB21370D4F8203D43F47003C4F8203D0B
:1059A000D4F8203D43F07043C4F8203DFFF788FF52
:1059B0000E4B00251D60FFF7ADFED4F8343F43F0D9
:1059C0004043C4F8343FFFF791FE01F0A9F8FFF718
:1059D000ABFE284603B030BD71C20F4170C20F410B
:1059E00000E400E04C1C0120501C0120800000203D
:1059F000EFF305830F2B0ED9114A9B5C114A1278E5
:105A00009A4208D94FF0500383F31188BFF36F8F88
:105A1000BFF34F8FFEE74FF0E0230B4AD3F80C3D66
:105A2000126803F4E063934208D94FF0500383F304
:105A30001188BFF36F8FBFF34F8FFEE7704700BF32
:105A4000F0E300E04C1C0120501C012010B504467E
:105A5000FFF7B8FEA46BFFF7D5FEB4FA84F0400957
:105A600010BDF8B51546026C866B044652B907683E
:105A700047BB806801F0AAF9A76005460136A66316
:105A80002846F8BD65B9406812F062F96368226C77
:105A90001344A26863609342F0D323686360EDE728
:105AA000C06812F055F9226CE36851429B1A2268D3
:105AB000E36093423EBFA3685B18E360022D01D10F
:105AC00016B1013E0025D9E73546D7E7034610B4A5
:105AD0001A6C08466AB1DC68996814448C4228BF85
